{
  "contractName": "ProofContract",
  "abi": [
    {
      "inputs": [
        {
          "internalType": "uint256[]",
          "name": "_a",
          "type": "uint256[]"
        },
        {
          "internalType": "uint256[][]",
          "name": "_b",
          "type": "uint256[][]"
        },
        {
          "internalType": "uint256[]",
          "name": "_c",
          "type": "uint256[]"
        },
        {
          "internalType": "uint256[]",
          "name": "_inputs",
          "type": "uint256[]"
        }
      ],
      "stateMutability": "nonpayable",
      "type": "constructor"
    },
    {
      "inputs": [
        {
          "internalType": "uint256",
          "name": "",
          "type": "uint256"
        }
      ],
      "name": "inputs",
      "outputs": [
        {
          "internalType": "uint256",
          "name": "",
          "type": "uint256"
        }
      ],
      "stateMutability": "view",
      "type": "function"
    },
    {
      "inputs": [
        {
          "internalType": "uint256[]",
          "name": "_a",
          "type": "uint256[]"
        },
        {
          "internalType": "uint256[][]",
          "name": "_b",
          "type": "uint256[][]"
        },
        {
          "internalType": "uint256[]",
          "name": "_c",
          "type": "uint256[]"
        }
      ],
      "name": "setProof",
      "outputs": [],
      "stateMutability": "nonpayable",
      "type": "function"
    },
    {
      "inputs": [
        {
          "internalType": "uint256[]",
          "name": "_inputs",
          "type": "uint256[]"
        }
      ],
      "name": "setInputs",
      "outputs": [],
      "stateMutability": "nonpayable",
      "type": "function"
    },
    {
      "inputs": [],
      "name": "getProof",
      "outputs": [
        {
          "components": [
            {
              "internalType": "uint256[]",
              "name": "a",
              "type": "uint256[]"
            },
            {
              "internalType": "uint256[][]",
              "name": "b",
              "type": "uint256[][]"
            },
            {
              "internalType": "uint256[]",
              "name": "c",
              "type": "uint256[]"
            }
          ],
          "internalType": "struct ProofContract.Proof",
          "name": "",
          "type": "tuple"
        }
      ],
      "stateMutability": "view",
      "type": "function"
    },
    {
      "inputs": [],
      "name": "getInputs",
      "outputs": [
        {
          "internalType": "uint256[]",
          "name": "",
          "type": "uint256[]"
        }
      ],
      "stateMutability": "view",
      "type": "function"
    }
  ],
  "bytecode": "0x60806040523480156200001157600080fd5b50604051620011da380380620011da833981810160405281019062000037919062000396565b33600260006101000a81548173ffffffffffffffffffffffffffffffffffffffff021916908373ffffffffffffffffffffffffffffffffffffffff1602179055506040518060600160405280858152602001848152602001838152506000808081526020019081526020016000206000820151816000019080519060200190620000c392919062000128565b506020820151816001019080519060200190620000e29291906200017a565b5060408201518160020190805190602001906200010192919062000128565b5090505080600190805190602001906200011d92919062000128565b50505050506200054b565b82805482825590600052602060002090810192821562000167579160200282015b828111156200016657825182559160200191906001019062000149565b5b509050620001769190620001e1565b5090565b828054828255906000526020600020908101928215620001ce579160200282015b82811115620001cd578251829080519060200190620001bc92919062000128565b50916020019190600101906200019b565b5b509050620001dd919062000200565b5090565b5b80821115620001fc576000816000905550600101620001e2565b5090565b5b808211156200022457600081816200021a919062000228565b5060010162000201565b5090565b5080546000825590600052602060002090810190620002489190620001e1565b50565b6000620002626200025c846200049a565b62000466565b9050808382526020820190508260005b85811015620002a657815185016200028b888262000352565b84526020840193506020830192505060018101905062000272565b5050509392505050565b6000620002c7620002c184620004c9565b62000466565b90508083825260208201905082856020860282011115620002e757600080fd5b60005b858110156200031b57816200030088826200037f565b845260208401935060208301925050600181019050620002ea565b5050509392505050565b600082601f8301126200033757600080fd5b8151620003498482602086016200024b565b91505092915050565b600082601f8301126200036457600080fd5b815162000376848260208601620002b0565b91505092915050565b600081519050620003908162000531565b92915050565b60008060008060808587031215620003ad57600080fd5b600085015167ffffffffffffffff811115620003c857600080fd5b620003d68782880162000352565b945050602085015167ffffffffffffffff811115620003f457600080fd5b620004028782880162000325565b935050604085015167ffffffffffffffff8111156200042057600080fd5b6200042e8782880162000352565b925050606085015167ffffffffffffffff8111156200044c57600080fd5b6200045a8782880162000352565b91505092959194509250565b6000604051905081810181811067ffffffffffffffff8211171562000490576200048f62000502565b5b8060405250919050565b600067ffffffffffffffff821115620004b857620004b762000502565b5b602082029050602081019050919050565b600067ffffffffffffffff821115620004e757620004e662000502565b5b602082029050602081019050919050565b6000819050919050565b7f4e487b7100000000000000000000000000000000000000000000000000000000600052604160045260246000fd5b6200053c81620004f8565b81146200054857600080fd5b50565b610c7f806200055b6000396000f3fe608060405234801561001057600080fd5b50600436106100575760003560e01c8063519108b31461005c5780635c5d625e14610078578063b48dce3614610096578063bbe9e39b146100b2578063ddef9ea1146100d0575b600080fd5b6100766004803603810190610071919061075e565b610100565b005b61008061021c565b60405161008d9190610a9f565b60405180910390f35b6100b060048036038101906100ab919061071d565b610395565b005b6100ba61043f565b6040516100c79190610a5d565b60405180910390f35b6100ea60048036038101906100e591906107f5565b610497565b6040516100f79190610ac1565b60405180910390f35b600260009054906101000a900473ffffffffffffffffffffffffffffffffffffffff1673ffffffffffffffffffffffffffffffffffffffff163373ffffffffffffffffffffffffffffffffffffffff1614610190576040517f08c379a000000000000000000000000000000000000000000000000000000000815260040161018790610a7f565b60405180910390fd5b60405180606001604052808481526020018381526020018281525060008080815260200190815260200160002060008201518160000190805190602001906101d99291906104bb565b5060208201518160010190805190602001906101f6929190610508565b5060408201518160020190805190602001906102139291906104bb565b50905050505050565b610224610568565b6000808081526020019081526020016000206040518060600160405290816000820180548060200260200160405190810160405280929190818152602001828054801561029057602002820191906000526020600020905b81548152602001906001019080831161027c575b5050505050815260200160018201805480602002602001604051908101604052809291908181526020016000905b828210156103305783829060005260206000200180548060200260200160405190810160405280929190818152602001828054801561031c57602002820191906000526020600020905b815481526020019060010190808311610308575b5050505050815260200190600101906102be565b5050505081526020016002820180548060200260200160405190810160405280929190818152602001828054801561038757602002820191906000526020600020905b815481526020019060010190808311610373575b505050505081525050905090565b600260009054906101000a900473ffffffffffffffffffffffffffffffffffffffff1673ffffffffffffffffffffffffffffffffffffffff163373ffffffffffffffffffffffffffffffffffffffff1614610425576040517f08c379a000000000000000000000000000000000000000000000000000000000815260040161041c90610a7f565b60405180910390fd5b806001908051906020019061043b9291906104bb565b5050565b6060600180548060200260200160405190810160405280929190818152602001828054801561048d57602002820191906000526020600020905b815481526020019060010190808311610479575b5050505050905090565b600181815481106104a757600080fd5b906000526020600020016000915090505481565b8280548282559060005260206000209081019282156104f7579160200282015b828111156104f65782518255916020019190600101906104db565b5b5090506105049190610589565b5090565b828054828255906000526020600020908101928215610557579160200282015b828111156105565782518290805190602001906105469291906104bb565b5091602001919060010190610528565b5b50905061056491906105a6565b5090565b60405180606001604052806060815260200160608152602001606081525090565b5b808211156105a257600081600090555060010161058a565b5090565b5b808211156105c657600081816105bd91906105ca565b506001016105a7565b5090565b50805460008255906000526020600020908101906105e89190610589565b50565b60006105fe6105f984610b0d565b610adc565b9050808382526020820190508260005b8581101561063e578135850161062488826106de565b84526020840193506020830192505060018101905061060e565b5050509392505050565b600061065b61065684610b39565b610adc565b9050808382526020820190508285602086028201111561067a57600080fd5b60005b858110156106aa57816106908882610708565b84526020840193506020830192505060018101905061067d565b5050509392505050565b600082601f8301126106c557600080fd5b81356106d58482602086016105eb565b91505092915050565b600082601f8301126106ef57600080fd5b81356106ff848260208601610648565b91505092915050565b60008135905061071781610c32565b92915050565b60006020828403121561072f57600080fd5b600082013567ffffffffffffffff81111561074957600080fd5b610755848285016106de565b91505092915050565b60008060006060848603121561077357600080fd5b600084013567ffffffffffffffff81111561078d57600080fd5b610799868287016106de565b935050602084013567ffffffffffffffff8111156107b657600080fd5b6107c2868287016106b4565b925050604084013567ffffffffffffffff8111156107df57600080fd5b6107eb868287016106de565b9150509250925092565b60006020828403121561080757600080fd5b600061081584828501610708565b91505092915050565b600061082a83836108bf565b905092915050565b600061083e8383610a3f565b60208301905092915050565b600061085582610b85565b61085f8185610bb5565b93508360208202850161087185610b65565b8060005b858110156108ad578484038952815161088e858261081e565b945061089983610b9b565b925060208a01995050600181019050610875565b50829750879550505050505092915050565b60006108ca82610b90565b6108d48185610bc6565b93506108df83610b75565b8060005b838110156109105781516108f78882610832565b975061090283610ba8565b9250506001810190506108e3565b5085935050505092915050565b600061092882610b90565b6109328185610bd7565b935061093d83610b75565b8060005b8381101561096e5781516109558882610832565b975061096083610ba8565b925050600181019050610941565b5085935050505092915050565b6000610988602a83610be8565b91507f4f6e6c7920636f6e7472616374206f776e65722063616e2063616c6c2074686960008301527f732066756e6374696f6e000000000000000000000000000000000000000000006020830152604082019050919050565b600060608301600083015184820360008601526109fe82826108bf565b91505060208301518482036020860152610a18828261084a565b91505060408301518482036040860152610a3282826108bf565b9150508091505092915050565b610a4881610bf9565b82525050565b610a5781610bf9565b82525050565b60006020820190508181036000830152610a77818461091d565b905092915050565b60006020820190508181036000830152610a988161097b565b9050919050565b60006020820190508181036000830152610ab981846109e1565b905092915050565b6000602082019050610ad66000830184610a4e565b92915050565b6000604051905081810181811067ffffffffffffffff82111715610b0357610b02610c03565b5b8060405250919050565b600067ffffffffffffffff821115610b2857610b27610c03565b5b602082029050602081019050919050565b600067ffffffffffffffff821115610b5457610b53610c03565b5b602082029050602081019050919050565b6000819050602082019050919050565b6000819050602082019050919050565b600081519050919050565b600081519050919050565b6000602082019050919050565b6000602082019050919050565b600082825260208201905092915050565b600082825260208201905092915050565b600082825260208201905092915050565b600082825260208201905092915050565b6000819050919050565b7f4e487b7100000000000000000000000000000000000000000000000000000000600052604160045260246000fd5b610c3b81610bf9565b8114610c4657600080fd5b5056fea26469706673582212200999d93021ad0545e539803146a263e3010f84b2a4fab94f12c3c663cb01abb964736f6c63430008000033",
  "immutableReferences": {},
  "source": "\n// SPDX-License-Identifier: MIT\npragma solidity ^0.8.0;\n\ncontract ProofContract {\n    struct Proof {\n        uint256[] a;\n        uint256[][] b;\n        uint256[] c;\n    }\n\n    mapping(uint256 => Proof) private proofData;\n    uint256[] public inputs;\n    address private owner;\n\n    modifier onlyOwner() {\n        require(msg.sender == owner, \"Only contract owner can call this function\");\n        _;\n    }\n\n    constructor(uint256[] memory _a, uint256[][] memory _b, uint256[] memory _c, uint256[] memory _inputs) {\n        owner = msg.sender;\n        proofData[0] = Proof(_a, _b, _c); \n        inputs = _inputs;\n    }\n\n    function setProof( uint256[] memory _a, uint256[][] memory _b, uint256[] memory _c) external onlyOwner{\n        proofData[0] = Proof(_a, _b, _c);\n    }\n\n    function setInputs(uint256[] memory _inputs) external onlyOwner{\n        inputs = _inputs;\n    }\n\n    function getProof() external view returns (Proof memory) {\n        return proofData[0];\n    }\n\n    function getInputs() external view returns (uint256[] memory) {\n        return inputs;\n    }\n}\n\n\n",
  "sourcePath": "/Users/nathansatge/Enseirb/IdentityGuard/server/Blockchain/contracts/ContractProof.sol",
  "compiler": {
    "name": "solc",
    "version": "0.8.0+commit.c7dfd78e.Emscripten.clang"
  },
  "schemaVersion": "3.4.16",
  "updatedAt": "2024-03-26T12:28:22.359Z",
  "devdoc": {
    "kind": "dev",
    "methods": {},
    "version": 1
  },
  "userdoc": {
    "kind": "user",
    "methods": {},
    "version": 1
  }
}