{
  "contractName": "VerifierAge",
  "abi": [
    {
      "inputs": [
        {
          "internalType": "uint256",
          "name": "",
          "type": "uint256"
        }
      ],
      "name": "proofA",
      "outputs": [
        {
          "internalType": "uint256",
          "name": "",
          "type": "uint256"
        }
      ],
      "stateMutability": "view",
      "type": "function"
    },
    {
      "inputs": [
        {
          "internalType": "uint256",
          "name": "",
          "type": "uint256"
        },
        {
          "internalType": "uint256",
          "name": "",
          "type": "uint256"
        }
      ],
      "name": "proofB",
      "outputs": [
        {
          "internalType": "uint256",
          "name": "",
          "type": "uint256"
        }
      ],
      "stateMutability": "view",
      "type": "function"
    },
    {
      "inputs": [
        {
          "internalType": "uint256",
          "name": "",
          "type": "uint256"
        }
      ],
      "name": "proofC",
      "outputs": [
        {
          "internalType": "uint256",
          "name": "",
          "type": "uint256"
        }
      ],
      "stateMutability": "view",
      "type": "function"
    },
    {
      "inputs": [
        {
          "internalType": "uint256",
          "name": "",
          "type": "uint256"
        }
      ],
      "name": "pubSignals",
      "outputs": [
        {
          "internalType": "uint256",
          "name": "",
          "type": "uint256"
        }
      ],
      "stateMutability": "view",
      "type": "function"
    },
    {
      "inputs": [
        {
          "internalType": "uint256[2]",
          "name": "_proofA",
          "type": "uint256[2]"
        },
        {
          "internalType": "uint256[2][2]",
          "name": "_proofB",
          "type": "uint256[2][2]"
        },
        {
          "internalType": "uint256[2]",
          "name": "_proofC",
          "type": "uint256[2]"
        },
        {
          "internalType": "uint256[2]",
          "name": "_pubSignals",
          "type": "uint256[2]"
        }
      ],
      "name": "updateProof",
      "outputs": [],
      "stateMutability": "nonpayable",
      "type": "function"
    },
    {
      "inputs": [],
      "name": "getProof",
      "outputs": [
        {
          "internalType": "uint256[2]",
          "name": "",
          "type": "uint256[2]"
        },
        {
          "internalType": "uint256[2][2]",
          "name": "",
          "type": "uint256[2][2]"
        },
        {
          "internalType": "uint256[2]",
          "name": "",
          "type": "uint256[2]"
        },
        {
          "internalType": "uint256[2]",
          "name": "",
          "type": "uint256[2]"
        }
      ],
      "stateMutability": "view",
      "type": "function"
    },
    {
      "inputs": [
        {
          "internalType": "uint256",
          "name": "_code",
          "type": "uint256"
        }
      ],
      "name": "setVerificationCode",
      "outputs": [],
      "stateMutability": "nonpayable",
      "type": "function"
    },
    {
      "inputs": [
        {
          "internalType": "uint256",
          "name": "_code",
          "type": "uint256"
        }
      ],
      "name": "verifyCode",
      "outputs": [
        {
          "internalType": "bool",
          "name": "",
          "type": "bool"
        }
      ],
      "stateMutability": "view",
      "type": "function"
    },
    {
      "inputs": [
        {
          "internalType": "uint256[2]",
          "name": "_pA",
          "type": "uint256[2]"
        },
        {
          "internalType": "uint256[2][2]",
          "name": "_pB",
          "type": "uint256[2][2]"
        },
        {
          "internalType": "uint256[2]",
          "name": "_pC",
          "type": "uint256[2]"
        },
        {
          "internalType": "uint256[2]",
          "name": "_pubSignals",
          "type": "uint256[2]"
        }
      ],
      "name": "verifyProof",
      "outputs": [
        {
          "internalType": "bool",
          "name": "",
          "type": "bool"
        }
      ],
      "stateMutability": "view",
      "type": "function"
    }
  ],
  "bytecode": "0x608060405234801561001057600080fd5b50611039806100206000396000f3fe608060405234801561001057600080fd5b50600436106100935760003560e01c806384812550116100665780638481255014610135578063b4da21c914610165578063bc1b849814610181578063bca39599146101b1578063f5c9d69e146101e157610093565b806324ffa172146100985780634e21577f146100c85780635c5d625e146100f85780636ecca5b714610119575b600080fd5b6100b260048036038101906100ad9190610c81565b610211565b6040516100bf9190610eaa565b60405180910390f35b6100e260048036038101906100dd9190610c81565b61022c565b6040516100ef9190610eaa565b60405180910390f35b610100610247565b6040516101109493929190610e48565b60405180910390f35b610133600480360381019061012e9190610c81565b6103b1565b005b61014f600480360381019061014a9190610c81565b6103bb565b60405161015c9190610eaa565b60405180910390f35b61017f600480360381019061017a9190610c1c565b6103d6565b005b61019b60048036038101906101969190610c81565b610424565b6040516101a89190610e8f565b60405180910390f35b6101cb60048036038101906101c69190610caa565b610432565b6040516101d89190610eaa565b60405180910390f35b6101fb60048036038101906101f69190610bb7565b610460565b6040516102089190610e8f565b60405180910390f35b6008816002811061022157600080fd5b016000915090505481565b6006816002811061023c57600080fd5b016000915090505481565b61024f610924565b610257610946565b61025f610924565b610267610924565b6000600260066008836002806020026040519081016040528092919082600280156102a7576020028201915b815481526020019060010190808311610293575b5050505050935082600280602002604051908101604052809291906000905b8282101561031f5783826002020160028060200260405190810160405280929190826002801561030b576020028201915b8154815260200190600101908083116102f7575b5050505050815260200190600101906102c6565b5050505092508160028060200260405190810160405280929190826002801561035d576020028201915b815481526020019060010190808311610349575b505050505091508060028060200260405190810160405280929190826002801561039c576020028201915b815481526020019060010190808311610388575b50505050509050935093509350935090919293565b80600a8190555050565b600081600281106103cb57600080fd5b016000915090505481565b8360009060026103e7929190610973565b508260029060026103f99291906109b3565b5081600690600261040b929190610973565b5080600890600261041d929190610973565b5050505050565b6000600a5482149050919050565b6002826002811061044257600080fd5b60020201816002811061045457600080fd5b01600091509150505481565b60006108db565b7f30644e72e131a029b85045b68181585d97816a916871ca8d3c208c16d87cfd478110610498576000805260206000f35b50565b600060405183815284602082015285604082015260408160608360076107d05a03fa9150816104ce576000805260206000f35b825160408201526020830151606082015260408360808360066107d05a03fa9150816104fe576000805260206000f35b505050505050565b600060808601600087017f24b39187b522368f4ac46cf7997b1a3a1d326535961a7d99cfea3d3551acb8fc81527f1700c135a4a4e654854d9ccebf8c02865c69617f239fc97e576b3a60b7c40cbd60208201526105a960008801357f1d1819e7ca5bb9d0a560bd1e87e8d0c2544c7c59a3b5b4245d40789fda5435b77f1e1e246c42681fee714d623f5ca4241897d1784d4f97a18db0dd4b72344e18c88461049b565b6105f960208801357f10fcf8e161bf5eecfb21489f7e8afbee8851a32fdbe55247d2e7885b8da2fe8b7f0518f16dff8c85c1b90c95f38b975cd97829d7127cfbe7fe42b389db4f6820518461049b565b833582527f30644e72e131a029b85045b68181585d97816a916871ca8d3c208c16d87cfd4760208501357f30644e72e131a029b85045b68181585d97816a916871ca8d3c208c16d87cfd4703066020830152843560408301526020850135606083015260408501356080830152606085013560a08301527f255b557061c059930079d874ab5503d8231b50e04a5017b7d3d0cc50dbf3652c60c08301527f286e4781ca0dab2915c76c68991e8c334385452fb54708adbf19ba7172fbbb9060e08301527e9a304852d995113f256e8f2da7adf3e34009a9620be2b3d79662d4197bbbf26101008301527f055ff5a049dab758fd11fc4737391c2035ed0b611ad64f1b1d4a395ee8c8eb476101208301527f0cc325dd37be68a55cfa7a44967b6131ac4f65a1bfae40487b58f5544987542f6101408301527f07fb20e7c222b0e9ed7774dc721c5e36c47e1d01e43964c5db592c230f73b271610160830152600088015161018083015260206000018801516101a08301527f198e9393920d483a7260bfb731fb5d25f1aa493335a9e71297e485b7aef312c26101c08301527f1800deef121f1e76426a00665e5c4479674322d4f75edadd46debd5cd992f6ed6101e08301527f090689d0585ff075ec9e99ad690c3395bc4b313370b38ef355acdadcd122975b6102008301527f12c85ea5db8c6deb4aab71808dcb408fe3d1e7690c43d37b4ce6cc0166fa7daa610220830152853561024083015260208601356102608301527ee8eac7ec6e7f6932531c6f973d1f569f4931d03dbad013c0b9f363759088166102808301527f2e878925ed15af66ed37ff149896443c2d909971e1a356f6f7c0287ab8263d566102a08301527f05a0aebaa8e2f6fe9a9afa9ac40649ed29ed4e07447a9892a814a10ba0f0ddbc6102c08301527f1da2a88404c7213e4872e95e65f29a03fd832feb74a55dc011843f0700a0dbbb6102e08301526020826103008460086107d05a03fa82518116935050505095945050505050565b60405161038081016040526108f36000840135610467565b6109006020840135610467565b61090d6040840135610467565b61091a818486888a610506565b8060005260206000f35b6040518060400160405280600290602082028036833780820191505090505090565b60405180604001604052806002905b61095d610924565b8152602001906001900390816109555790505090565b82600281019282156109a2579160200282015b828111156109a1578251825591602001919060010190610986565b5b5090506109af9190610a03565b5090565b826002800281019282156109f2579160200282015b828111156109f1578251829060026109e1929190610973565b50916020019190600201906109c8565b5b5090506109ff9190610a20565b5090565b5b80821115610a1c576000816000905550600101610a04565b5090565b5b80821115610a405760008181610a379190610a44565b50600201610a21565b5090565b506000815560010160009055565b6000610a65610a6084610ef6565b610ec5565b90508082856040860282011115610a7b57600080fd5b60005b85811015610aab5781610a918882610b7b565b845260208401935060408301925050600181019050610a7e565b5050509392505050565b6000610ac8610ac384610f1c565b610ec5565b90508082856020860282011115610ade57600080fd5b60005b85811015610b0e5781610af48882610ba2565b845260208401935060208301925050600181019050610ae1565b5050509392505050565b600081905082604060020282011115610b3057600080fd5b92915050565b600082601f830112610b4757600080fd5b6002610b54848285610a52565b91505092915050565b600081905082602060020282011115610b7557600080fd5b92915050565b600082601f830112610b8c57600080fd5b6002610b99848285610ab5565b91505092915050565b600081359050610bb181610fec565b92915050565b6000806000806101408587031215610bce57600080fd5b6000610bdc87828801610b5d565b9450506040610bed87828801610b18565b93505060c0610bfe87828801610b5d565b925050610100610c1087828801610b5d565b91505092959194509250565b6000806000806101408587031215610c3357600080fd5b6000610c4187828801610b7b565b9450506040610c5287828801610b36565b93505060c0610c6387828801610b7b565b925050610100610c7587828801610b7b565b91505092959194509250565b600060208284031215610c9357600080fd5b6000610ca184828501610ba2565b91505092915050565b60008060408385031215610cbd57600080fd5b6000610ccb85828601610ba2565b9250506020610cdc85828601610ba2565b9150509250929050565b6000610cf28383610d6d565b60408301905092915050565b6000610d0a8383610e2a565b60208301905092915050565b610d1f81610f56565b610d298184610f86565b9250610d3482610f42565b8060005b83811015610d65578151610d4c8782610ce6565b9650610d5783610f6c565b925050600181019050610d38565b505050505050565b610d7681610f61565b610d808184610f91565b9250610d8b82610f4c565b8060005b83811015610dbc578151610da38782610cfe565b9650610dae83610f79565b925050600181019050610d8f565b505050505050565b610dcd81610f61565b610dd78184610f9c565b9250610de282610f4c565b8060005b83811015610e13578151610dfa8782610cfe565b9650610e0583610f79565b925050600181019050610de6565b505050505050565b610e2481610fa7565b82525050565b610e3381610fb3565b82525050565b610e4281610fb3565b82525050565b600061014082019050610e5e6000830187610dc4565b610e6b6040830186610d16565b610e7860c0830185610dc4565b610e86610100830184610dc4565b95945050505050565b6000602082019050610ea46000830184610e1b565b92915050565b6000602082019050610ebf6000830184610e39565b92915050565b6000604051905081810181811067ffffffffffffffff82111715610eec57610eeb610fbd565b5b8060405250919050565b600067ffffffffffffffff821115610f1157610f10610fbd565b5b602082029050919050565b600067ffffffffffffffff821115610f3757610f36610fbd565b5b602082029050919050565b6000819050919050565b6000819050919050565b600060029050919050565b600060029050919050565b6000602082019050919050565b6000602082019050919050565b600081905092915050565b600081905092915050565b600081905092915050565b60008115159050919050565b6000819050919050565b7f4e487b7100000000000000000000000000000000000000000000000000000000600052604160045260246000fd5b610ff581610fb3565b811461100057600080fd5b5056fea26469706673582212208c1e59422313eb61a69e4621b22f88e0871ad6acea5eb7f34032f972176c300d64736f6c63430008000033",
  "immutableReferences": {},
  "source": "// SPDX-License-Identifier: GPL-3.0\n/*\n    Copyright 2021 0KIMS association.\n\n    This file is generated with [snarkJS](https://github.com/iden3/snarkjs).\n\n    snarkJS is a free software: you can redistribute it and/or modify it\n    under the terms of the GNU General Public License as published by\n    the Free Software Foundation, either version 3 of the License, or\n    (at your option) any later version.\n\n    snarkJS is distributed in the hope that it will be useful, but WITHOUT\n    ANY WARRANTY; without even the implied warranty of MERCHANTABILITY\n    or FITNESS FOR A PARTICULAR PURPOSE. See the GNU General Public\n    License for more details.\n\n    You should have received a copy of the GNU General Public License\n    along with snarkJS. If not, see <https://www.gnu.org/licenses/>.\n*/\n\npragma solidity >=0.7.0 <0.9.0;\n\ncontract VerifierAge {\n    // Scalar field size\n    uint256 constant r    = 21888242871839275222246405745257275088548364400416034343698204186575808495617;\n    // Base field size\n    uint256 constant q   = 21888242871839275222246405745257275088696311157297823662689037894645226208583;\n\n    // Verification Key data\n    uint256 constant alphax  = 16896948158723613713431692591491255169307474657636585905451888824968084153644;\n    uint256 constant alphay  = 18287360643558725854809175058695902947642041979173004435593129860180320435088;\n    uint256 constant betax1  = 272427681641793249747719493834252776154286824755897519200488085613891533810;\n    uint256 constant betax2  = 2431109963294480803838319807336777923835343495916266541118945834575996709703;\n    uint256 constant betay1  = 5772550689264531963701778896324154672478997487451354823454705412865964594223;\n    uint256 constant betay2  = 3609895657417872257098150421908469028437081229872700348512707225231738253937;\n    uint256 constant gammax1 = 11559732032986387107991004021392285783925812861821192530917403151452391805634;\n    uint256 constant gammax2 = 10857046999023057135944570762232829481370756359578518086990519993285655852781;\n    uint256 constant gammay1 = 4082367875863433681332203403145435568316851327593401208105741076214120093531;\n    uint256 constant gammay2 = 8495653923123431417604973247489272438418190587263600148770280649306958101930;\n    uint256 constant deltax1 = 411528917602277869933993118459314152934657834789920017362006591936635373590;\n    uint256 constant deltax2 = 21045861950310806626091905888762348922953452926932100724184831559157084994902;\n    uint256 constant deltay1 = 2545465709481127995457860907680854886962629773091104106099773610259213508028;\n    uint256 constant deltay2 = 13404464886011210841132804871127825068657321924972004270529356660719619201979;\n\n    \n    uint256 constant IC0x = 16600532585481604728379938088803708872445080656992597326350547654911344818428;\n    uint256 constant IC0y = 10404529000676282517170197430484286268562073602153832918227427849663603281085;\n    \n    uint256 constant IC1x = 13622642250977513374075543767296268020799047159638051249381118942107860342984;\n    uint256 constant IC1y = 13159655731186573101586890205626657784869638011014352500784106794025055696311;\n    \n    uint256 constant IC2x = 2305634858887218384835367806695732351659523521017551653644965043375050334289;\n    uint256 constant IC2y = 7683968747032436907933409782985776118080148969670313986077656849146083212939;\n    \n \n    // Memory data\n    uint16 constant pVk = 0;\n    uint16 constant pPairing = 128;\n\n    uint16 constant pLastMem = 896;\n\n    uint256[2] public proofA;\n    uint256[2][2] public proofB;\n    uint256[2] public proofC;\n    uint256[2] public pubSignals;\n\n    function updateProof(\n        uint256[2] memory _proofA,\n        uint256[2][2] memory _proofB,\n        uint256[2] memory _proofC,\n        uint256[2] memory _pubSignals\n    ) public {\n        proofA = _proofA;\n        proofB = _proofB;\n        proofC = _proofC;\n        pubSignals = _pubSignals;\n    }\n\n   function getProof() public view returns (uint256[2] memory, uint256[2][2] memory, uint256[2] memory, uint256[2] memory) {\n        return (proofA, proofB, proofC, pubSignals);\n    }\n\n\n    uint256 private verificationCode;\n\n    function setVerificationCode(uint256 _code) public{\n        verificationCode = _code;\n    }\n\n    function verifyCode(uint256 _code) public view returns (bool) {\n        return _code == verificationCode;\n    }\n\n\n    function verifyProof(uint[2] calldata _pA, uint[2][2] calldata _pB, uint[2] calldata _pC, uint[2] calldata _pubSignals) public view returns (bool) {\n        assembly {\n            function checkField(v) {\n                if iszero(lt(v, q)) {\n                    mstore(0, 0)\n                    return(0, 0x20)\n                }\n            }\n            \n            // G1 function to multiply a G1 value(x,y) to value in an address\n            function g1_mulAccC(pR, x, y, s) {\n                let success\n                let mIn := mload(0x40)\n                mstore(mIn, x)\n                mstore(add(mIn, 32), y)\n                mstore(add(mIn, 64), s)\n\n                success := staticcall(sub(gas(), 2000), 7, mIn, 96, mIn, 64)\n\n                if iszero(success) {\n                    mstore(0, 0)\n                    return(0, 0x20)\n                }\n\n                mstore(add(mIn, 64), mload(pR))\n                mstore(add(mIn, 96), mload(add(pR, 32)))\n\n                success := staticcall(sub(gas(), 2000), 6, mIn, 128, pR, 64)\n\n                if iszero(success) {\n                    mstore(0, 0)\n                    return(0, 0x20)\n                }\n            }\n\n            function checkPairing(pA, pB, pC, pubSignals, pMem) -> isOk {\n                let _pPairing := add(pMem, pPairing)\n                let _pVk := add(pMem, pVk)\n\n                mstore(_pVk, IC0x)\n                mstore(add(_pVk, 32), IC0y)\n\n                // Compute the linear combination vk_x\n                \n                g1_mulAccC(_pVk, IC1x, IC1y, calldataload(add(pubSignals, 0)))\n                \n                g1_mulAccC(_pVk, IC2x, IC2y, calldataload(add(pubSignals, 32)))\n                \n\n                // -A\n                mstore(_pPairing, calldataload(pA))\n                mstore(add(_pPairing, 32), mod(sub(q, calldataload(add(pA, 32))), q))\n\n                // B\n                mstore(add(_pPairing, 64), calldataload(pB))\n                mstore(add(_pPairing, 96), calldataload(add(pB, 32)))\n                mstore(add(_pPairing, 128), calldataload(add(pB, 64)))\n                mstore(add(_pPairing, 160), calldataload(add(pB, 96)))\n\n                // alpha1\n                mstore(add(_pPairing, 192), alphax)\n                mstore(add(_pPairing, 224), alphay)\n\n                // beta2\n                mstore(add(_pPairing, 256), betax1)\n                mstore(add(_pPairing, 288), betax2)\n                mstore(add(_pPairing, 320), betay1)\n                mstore(add(_pPairing, 352), betay2)\n\n                // vk_x\n                mstore(add(_pPairing, 384), mload(add(pMem, pVk)))\n                mstore(add(_pPairing, 416), mload(add(pMem, add(pVk, 32))))\n\n\n                // gamma2\n                mstore(add(_pPairing, 448), gammax1)\n                mstore(add(_pPairing, 480), gammax2)\n                mstore(add(_pPairing, 512), gammay1)\n                mstore(add(_pPairing, 544), gammay2)\n\n                // C\n                mstore(add(_pPairing, 576), calldataload(pC))\n                mstore(add(_pPairing, 608), calldataload(add(pC, 32)))\n\n                // delta2\n                mstore(add(_pPairing, 640), deltax1)\n                mstore(add(_pPairing, 672), deltax2)\n                mstore(add(_pPairing, 704), deltay1)\n                mstore(add(_pPairing, 736), deltay2)\n\n\n                let success := staticcall(sub(gas(), 2000), 8, _pPairing, 768, _pPairing, 0x20)\n\n                isOk := and(success, mload(_pPairing))\n            }\n\n            let pMem := mload(0x40)\n            mstore(0x40, add(pMem, pLastMem))\n\n            // Validate that all evaluations  F\n            \n            checkField(calldataload(add(_pubSignals, 0)))\n            \n            checkField(calldataload(add(_pubSignals, 32)))\n            \n            checkField(calldataload(add(_pubSignals, 64)))\n            \n\n            // Validate all evaluations\n            let isValid := checkPairing(_pA, _pB, _pC, _pubSignals, pMem)\n\n            mstore(0, isValid)\n             return(0, 0x20)\n         }\n     }\n }\n",
  "sourcePath": "/home/satge/ProjetS8/IdentityGuard/client/contracts/verifierAge.sol",
  "compiler": {
    "name": "solc",
    "version": "0.8.0+commit.c7dfd78e.Emscripten.clang"
  },
  "schemaVersion": "3.4.16",
  "updatedAt": "2024-03-12T16:55:50.405Z",
  "devdoc": {
    "kind": "dev",
    "methods": {},
    "version": 1
  },
  "userdoc": {
    "kind": "user",
    "methods": {},
    "version": 1
  }
}